{
  "contractName": "CharitableCauseFactory",
  "abi": [
    {
      "constant": true,
      "inputs": [
        {
          "internalType": "uint256",
          "name": "",
          "type": "uint256"
        }
      ],
      "name": "deployedCharitableCauses",
      "outputs": [
        {
          "internalType": "contract CharitableCause",
          "name": "",
          "type": "address"
        }
      ],
      "payable": false,
      "stateMutability": "view",
      "type": "function"
    },
    {
      "constant": false,
      "inputs": [
        {
          "internalType": "uint256",
          "name": "minimum",
          "type": "uint256"
        },
        {
          "internalType": "string",
          "name": "title",
          "type": "string"
        },
        {
          "internalType": "string",
          "name": "details",
          "type": "string"
        },
        {
          "internalType": "string",
          "name": "location",
          "type": "string"
        },
        {
          "internalType": "string",
          "name": "causeType",
          "type": "string"
        }
      ],
      "name": "createCharitableCause",
      "outputs": [],
      "payable": false,
      "stateMutability": "nonpayable",
      "type": "function"
    },
    {
      "constant": true,
      "inputs": [],
      "name": "getDeployedCharitableCauses",
      "outputs": [
        {
          "internalType": "contract CharitableCause[]",
          "name": "",
          "type": "address[]"
        }
      ],
      "payable": false,
      "stateMutability": "view",
      "type": "function"
    }
  ],
  "bytecode": "0x608060405234801561001057600080fd5b506129bf806100206000396000f3fe608060405234801561001057600080fd5b50600436106100415760003560e01c80633411df6e146100465780637a54a8e6146102d0578063e15e94321461032f575b600080fd5b6102ce600480360360a081101561005c57600080fd5b81019080803590602001909291908035906020019064010000000081111561008357600080fd5b82018360208201111561009557600080fd5b803590602001918460018302840111640100000000831117156100b757600080fd5b91908080601f016020809104026020016040519081016040528093929190818152602001838380828437600081840152601f19601f8201169050808301925050505050505091929192908035906020019064010000000081111561011a57600080fd5b82018360208201111561012c57600080fd5b8035906020019184600183028401116401000000008311171561014e57600080fd5b91908080601f016020809104026020016040519081016040528093929190818152602001838380828437600081840152601f19601f820116905080830192505050505050509192919290803590602001906401000000008111156101b157600080fd5b8201836020820111156101c357600080fd5b803590602001918460018302840111640100000000831117156101e557600080fd5b91908080601f016020809104026020016040519081016040528093929190818152602001838380828437600081840152601f19601f8201169050808301925050505050505091929192908035906020019064010000000081111561024857600080fd5b82018360208201111561025a57600080fd5b8035906020019184600183028401116401000000008311171561027c57600080fd5b91908080601f016020809104026020016040519081016040528093929190818152602001838380828437600081840152601f19601f82011690508083019250505050505050919291929050505061039d565b005b6102d861062b565b6040518080602001828103825283818151815260200191508051906020019060200280838360005b8381101561031b578082015181840152602081019050610300565b505050509050019250505060405180910390f35b61035b6004803603602081101561034557600080fd5b81019080803590602001909291905050506106b9565b604051808273ffffffffffffffffffffffffffffffffffffffff1673ffffffffffffffffffffffffffffffffffffffff16815260200191505060405180910390f35b60008533868686866040516103b1906106f5565b808781526020018673ffffffffffffffffffffffffffffffffffffffff1673ffffffffffffffffffffffffffffffffffffffff16815260200180602001806020018060200180602001858103855289818151815260200191508051906020019080838360005b83811015610432578082015181840152602081019050610417565b50505050905090810190601f16801561045f5780820380516001836020036101000a031916815260200191505b50858103845288818151815260200191508051906020019080838360005b8381101561049857808201518184015260208101905061047d565b50505050905090810190601f1680156104c55780820380516001836020036101000a031916815260200191505b50858103835287818151815260200191508051906020019080838360005b838110156104fe5780820151818401526020810190506104e3565b50505050905090810190601f16801561052b5780820380516001836020036101000a031916815260200191505b50858103825286818151815260200191508051906020019080838360005b83811015610564578082015181840152602081019050610549565b50505050905090810190601f1680156105915780820380516001836020036101000a031916815260200191505b509a5050505050505050505050604051809103906000f0801580156105ba573d6000803e3d6000fd5b50905060008190806001815401808255809150509060018203906000526020600020016000909192909190916101000a81548173ffffffffffffffffffffffffffffffffffffffff021916908373ffffffffffffffffffffffffffffffffffffffff16021790555050505050505050565b606060008054806020026020016040519081016040528092919081815260200182805480156106af57602002820191906000526020600020905b8160009054906101000a900473ffffffffffffffffffffffffffffffffffffffff1673ffffffffffffffffffffffffffffffffffffffff1681526020019060010190808311610665575b5050505050905090565b600081815481106106c657fe5b906000526020600020016000915054906101000a900473ffffffffffffffffffffffffffffffffffffffff1681565b612288806107038339019056fe60806040523480156200001157600080fd5b506040516200228838038062002288833981810160405260c08110156200003757600080fd5b810190808051906020019092919080519060200190929190805160405193929190846401000000008211156200006c57600080fd5b838201915060208201858111156200008357600080fd5b8251866001820283011164010000000082111715620000a157600080fd5b8083526020830192505050908051906020019080838360005b83811015620000d7578082015181840152602081019050620000ba565b50505050905090810190601f168015620001055780820380516001836020036101000a031916815260200191505b50604052602001805160405193929190846401000000008211156200012957600080fd5b838201915060208201858111156200014057600080fd5b82518660018202830111640100000000821117156200015e57600080fd5b8083526020830192505050908051906020019080838360005b838110156200019457808201518184015260208101905062000177565b50505050905090810190601f168015620001c25780820380516001836020036101000a031916815260200191505b5060405260200180516040519392919084640100000000821115620001e657600080fd5b83820191506020820185811115620001fd57600080fd5b82518660018202830111640100000000821117156200021b57600080fd5b8083526020830192505050908051906020019080838360005b838110156200025157808201518184015260208101905062000234565b50505050905090810190601f1680156200027f5780820380516001836020036101000a031916815260200191505b5060405260200180516040519392919084640100000000821115620002a357600080fd5b83820191506020820185811115620002ba57600080fd5b8251866001820283011164010000000082111715620002d857600080fd5b8083526020830192505050908051906020019080838360005b838110156200030e578082015181840152602081019050620002f1565b50505050905090810190601f1680156200033c5780820380516001836020036101000a031916815260200191505b5060405250505084600460006101000a81548173ffffffffffffffffffffffffffffffffffffffff021916908373ffffffffffffffffffffffffffffffffffffffff160217905550856005819055508360009080519060200190620003a3929190620003fb565b508160029080519060200190620003bc929190620003fb565b508060039080519060200190620003d5929190620003fb565b508260019080519060200190620003ee929190620003fb565b50505050505050620004aa565b828054600181600116156101000203166002900490600052602060002090601f016020900481019282601f106200043e57805160ff19168380011785556200046f565b828001600101855582156200046f579182015b828111156200046e57825182559160200191906001019062000451565b5b5090506200047e919062000482565b5090565b620004a791905b80821115620004a357600081600090555060010162000489565b5090565b90565b611dce80620004ba6000396000f3fe6080604052600436106101095760003560e01c80635cc070761161009557806382fde0931161006457806382fde093146109a95780638a9cfd55146109d4578063937e09b114610ac6578063d7bb99ba14610af1578063d7d1bbdb14610afb57610109565b80635cc07076146106f95780635e7fef9e146107ee578063781952a81461087e57806381d12c58146108a957610109565b80634051ddac116100dc5780634051ddac146102cf578063481c6a75146104f25780634a79d50c14610549578063516f279e146105d9578063565974d31461066957610109565b8063034410061461010e5780630a144391146101495780631a4b49f1146101b25780633410452a146102a4575b600080fd5b34801561011a57600080fd5b506101476004803603602081101561013157600080fd5b8101908080359060200190929190505050610b36565b005b34801561015557600080fd5b506101986004803603602081101561016c57600080fd5b81019080803573ffffffffffffffffffffffffffffffffffffffff169060200190929190505050610d5b565b604051808215151515815260200191505060405180910390f35b3480156101be57600080fd5b506102a2600480360360608110156101d557600080fd5b8101908080359060200190929190803573ffffffffffffffffffffffffffffffffffffffff1690602001909291908035906020019064010000000081111561021c57600080fd5b82018360208201111561022e57600080fd5b8035906020019184600183028401116401000000008311171561025057600080fd5b91908080601f016020809104026020016040519081016040528093929190818152602001838380828437600081840152601f19601f820116905080830192505050505050509192919290505050610d7b565b005b3480156102b057600080fd5b506102b9610f58565b6040518082815260200191505060405180910390f35b3480156102db57600080fd5b506102e4610f65565b604051808a81526020018981526020018881526020018781526020018673ffffffffffffffffffffffffffffffffffffffff1673ffffffffffffffffffffffffffffffffffffffff16815260200180602001806020018060200180602001858103855289818151815260200191508051906020019080838360005b8381101561037a57808201518184015260208101905061035f565b50505050905090810190601f1680156103a75780820380516001836020036101000a031916815260200191505b50858103845288818151815260200191508051906020019080838360005b838110156103e05780820151818401526020810190506103c5565b50505050905090810190601f16801561040d5780820380516001836020036101000a031916815260200191505b50858103835287818151815260200191508051906020019080838360005b8381101561044657808201518184015260208101905061042b565b50505050905090810190601f1680156104735780820380516001836020036101000a031916815260200191505b50858103825286818151815260200191508051906020019080838360005b838110156104ac578082015181840152602081019050610491565b50505050905090810190601f1680156104d95780820380516001836020036101000a031916815260200191505b509d505050505050505050505050505060405180910390f35b3480156104fe57600080fd5b50610507611238565b604051808273ffffffffffffffffffffffffffffffffffffffff1673ffffffffffffffffffffffffffffffffffffffff16815260200191505060405180910390f35b34801561055557600080fd5b5061055e61125e565b6040518080602001828103825283818151815260200191508051906020019080838360005b8381101561059e578082015181840152602081019050610583565b50505050905090810190601f1680156105cb5780820380516001836020036101000a031916815260200191505b509250505060405180910390f35b3480156105e557600080fd5b506105ee6112fc565b6040518080602001828103825283818151815260200191508051906020019080838360005b8381101561062e578082015181840152602081019050610613565b50505050905090810190601f16801561065b5780820380516001836020036101000a031916815260200191505b509250505060405180910390f35b34801561067557600080fd5b5061067e61139a565b6040518080602001828103825283818151815260200191508051906020019080838360005b838110156106be5780820151818401526020810190506106a3565b50505050905090810190601f1680156106eb5780820380516001836020036101000a031916815260200191505b509250505060405180910390f35b34801561070557600080fd5b506107326004803603602081101561071c57600080fd5b8101908080359060200190929190505050611438565b60405180806020018581526020018473ffffffffffffffffffffffffffffffffffffffff1673ffffffffffffffffffffffffffffffffffffffff168152602001838152602001828103825286818151815260200191508051906020019080838360005b838110156107b0578082015181840152602081019050610795565b50505050905090810190601f1680156107dd5780820380516001836020036101000a031916815260200191505b509550505050505060405180910390f35b3480156107fa57600080fd5b5061080361152d565b6040518080602001828103825283818151815260200191508051906020019080838360005b83811015610843578082015181840152602081019050610828565b50505050905090810190601f1680156108705780820380516001836020036101000a031916815260200191505b509250505060405180910390f35b34801561088a57600080fd5b506108936115cb565b6040518082815260200191505060405180910390f35b3480156108b557600080fd5b506108e2600480360360208110156108cc57600080fd5b81019080803590602001909291905050506115d8565b60405180806020018681526020018573ffffffffffffffffffffffffffffffffffffffff1673ffffffffffffffffffffffffffffffffffffffff16815260200184151515158152602001838152602001828103825287818151815260200191508051906020019080838360005b8381101561096a57808201518184015260208101905061094f565b50505050905090810190601f1680156109975780820380516001836020036101000a031916815260200191505b50965050505050505060405180910390f35b3480156109b557600080fd5b506109be6116e0565b6040518082815260200191505060405180910390f35b3480156109e057600080fd5b50610ac4600480360360608110156109f757600080fd5b8101908080359060200190640100000000811115610a1457600080fd5b820183602082011115610a2657600080fd5b80359060200191846001830284011164010000000083111715610a4857600080fd5b91908080601f016020809104026020016040519081016040528093929190818152602001838380828437600081840152601f19601f82011690508083019250505050505050919291929080359060200190929190803573ffffffffffffffffffffffffffffffffffffffff1690602001909291905050506116e6565b005b348015610ad257600080fd5b50610adb6118a6565b6040518082815260200191505060405180910390f35b610af96118ac565b005b348015610b0757600080fd5b50610b3460048036036020811015610b1e57600080fd5b8101908080359060200190929190505050611973565b005b600460009054906101000a900473ffffffffffffffffffffffffffffffffffffffff1673ffffffffffffffffffffffffffffffffffffffff163373ffffffffffffffffffffffffffffffffffffffff1614610bdc576040517f08c379a0000000000000000000000000000000000000000000000000000000008152600401808060200182810382526038815260200180611c996038913960400191505060405180910390fd5b600060088281548110610beb57fe5b90600052602060002090600502019050600260075481610c0757fe5b04816003015411610c63576040517f08c379a000000000000000000000000000000000000000000000000000000000815260040180806020018281038252603c815260200180611d5e603c913960400191505060405180910390fd5b8060020160149054906101000a900460ff1615610ccb576040517f08c379a0000000000000000000000000000000000000000000000000000000008152600401808060200182810382526027815260200180611cd16027913960400191505060405180910390fd5b8060020160009054906101000a900473ffffffffffffffffffffffffffffffffffffffff1673ffffffffffffffffffffffffffffffffffffffff166108fc82600101549081150290604051600060405180830381858888f19350505050158015610d39573d6000803e3d6000fd5b5060018160020160146101000a81548160ff0219169083151502179055505050565b60066020528060005260406000206000915054906101000a900460ff1681565b600460009054906101000a900473ffffffffffffffffffffffffffffffffffffffff1673ffffffffffffffffffffffffffffffffffffffff163373ffffffffffffffffffffffffffffffffffffffff1614610e21576040517f08c379a0000000000000000000000000000000000000000000000000000000008152600401808060200182810382526038815260200180611c996038913960400191505060405180910390fd5b8173ffffffffffffffffffffffffffffffffffffffff166108fc849081150290604051600060405180830381858888f19350505050158015610e67573d6000803e3d6000fd5b50610e70611b4b565b60405180608001604052808381526020018581526020018473ffffffffffffffffffffffffffffffffffffffff168152602001428152509050600981908060018154018082558091505090600182039060005260206000209060040201600090919290919091506000820151816000019080519060200190610ef3929190611b89565b506020820151816001015560408201518160020160006101000a81548173ffffffffffffffffffffffffffffffffffffffff021916908373ffffffffffffffffffffffffffffffffffffffff1602179055506060820151816003015550505050505050565b6000600880549050905090565b600080600080600060608060608060055447600880549050600754600460009054906101000a900473ffffffffffffffffffffffffffffffffffffffff166000600160026003838054600181600116156101000203166002900480601f0160208091040260200160405190810160405280929190818152602001828054600181600116156101000203166002900480156110405780601f1061101557610100808354040283529160200191611040565b820191906000526020600020905b81548152906001019060200180831161102357829003601f168201915b50505050509350828054600181600116156101000203166002900480601f0160208091040260200160405190810160405280929190818152602001828054600181600116156101000203166002900480156110dc5780601f106110b1576101008083540402835291602001916110dc565b820191906000526020600020905b8154815290600101906020018083116110bf57829003601f168201915b50505050509250818054600181600116156101000203166002900480601f0160208091040260200160405190810160405280929190818152602001828054600181600116156101000203166002900480156111785780601f1061114d57610100808354040283529160200191611178565b820191906000526020600020905b81548152906001019060200180831161115b57829003601f168201915b50505050509150808054600181600116156101000203166002900480601f0160208091040260200160405190810160405280929190818152602001828054600181600116156101000203166002900480156112145780601f106111e957610100808354040283529160200191611214565b820191906000526020600020905b8154815290600101906020018083116111f757829003601f168201915b50505050509050985098509850985098509850985098509850909192939495969798565b600460009054906101000a900473ffffffffffffffffffffffffffffffffffffffff1681565b60008054600181600116156101000203166002900480601f0160208091040260200160405190810160405280929190818152602001828054600181600116156101000203166002900480156112f45780601f106112c9576101008083540402835291602001916112f4565b820191906000526020600020905b8154815290600101906020018083116112d757829003601f168201915b505050505081565b60028054600181600116156101000203166002900480601f0160208091040260200160405190810160405280929190818152602001828054600181600116156101000203166002900480156113925780601f1061136757610100808354040283529160200191611392565b820191906000526020600020905b81548152906001019060200180831161137557829003601f168201915b505050505081565b60018054600181600116156101000203166002900480601f0160208091040260200160405190810160405280929190818152602001828054600181600116156101000203166002900480156114305780601f1061140557610100808354040283529160200191611430565b820191906000526020600020905b81548152906001019060200180831161141357829003601f168201915b505050505081565b6009818154811061144557fe5b9060005260206000209060040201600091509050806000018054600181600116156101000203166002900480601f0160208091040260200160405190810160405280929190818152602001828054600181600116156101000203166002900480156114f15780601f106114c6576101008083540402835291602001916114f1565b820191906000526020600020905b8154815290600101906020018083116114d457829003601f168201915b5050505050908060010154908060020160009054906101000a900473ffffffffffffffffffffffffffffffffffffffff16908060030154905084565b60038054600181600116156101000203166002900480601f0160208091040260200160405190810160405280929190818152602001828054600181600116156101000203166002900480156115c35780601f10611598576101008083540402835291602001916115c3565b820191906000526020600020905b8154815290600101906020018083116115a657829003601f168201915b505050505081565b6000600980549050905090565b600881815481106115e557fe5b9060005260206000209060050201600091509050806000018054600181600116156101000203166002900480601f0160208091040260200160405190810160405280929190818152602001828054600181600116156101000203166002900480156116915780601f1061166657610100808354040283529160200191611691565b820191906000526020600020905b81548152906001019060200180831161167457829003601f168201915b5050505050908060010154908060020160009054906101000a900473ffffffffffffffffffffffffffffffffffffffff16908060020160149054906101000a900460ff16908060030154905085565b60075481565b600460009054906101000a900473ffffffffffffffffffffffffffffffffffffffff1673ffffffffffffffffffffffffffffffffffffffff163373ffffffffffffffffffffffffffffffffffffffff161461178c576040517f08c379a0000000000000000000000000000000000000000000000000000000008152600401808060200182810382526038815260200180611c996038913960400191505060405180910390fd5b611794611c09565b6040518060a001604052808581526020018481526020018373ffffffffffffffffffffffffffffffffffffffff16815260200160001515815260200160008152509050600881908060018154018082558091505090600182039060005260206000209060050201600090919290919091506000820151816000019080519060200190611821929190611b89565b506020820151816001015560408201518160020160006101000a81548173ffffffffffffffffffffffffffffffffffffffff021916908373ffffffffffffffffffffffffffffffffffffffff16021790555060608201518160020160146101000a81548160ff0219169083151502179055506080820151816003015550505050505050565b60055481565b600554341015611907576040517f08c379a0000000000000000000000000000000000000000000000000000000008152600401808060200182810382526023815260200180611c766023913960400191505060405180910390fd5b6001600660003373ffffffffffffffffffffffffffffffffffffffff1673ffffffffffffffffffffffffffffffffffffffff16815260200190815260200160002060006101000a81548160ff021916908315150217905550600760008154809291906001019190505550565b60006008828154811061198257fe5b90600052602060002090600502019050600660003373ffffffffffffffffffffffffffffffffffffffff1673ffffffffffffffffffffffffffffffffffffffff16815260200190815260200160002060009054906101000a900460ff16611a34576040517f08c379a0000000000000000000000000000000000000000000000000000000008152600401808060200182810382526038815260200180611d266038913960400191505060405180910390fd5b8060040160003373ffffffffffffffffffffffffffffffffffffffff1673ffffffffffffffffffffffffffffffffffffffff16815260200190815260200160002060009054906101000a900460ff1615611ad9576040517f08c379a000000000000000000000000000000000000000000000000000000000815260040180806020018281038252602e815260200180611cf8602e913960400191505060405180910390fd5b60018160040160003373ffffffffffffffffffffffffffffffffffffffff1673ffffffffffffffffffffffffffffffffffffffff16815260200190815260200160002060006101000a81548160ff02191690831515021790555080600301600081548092919060010191905055505050565b60405180608001604052806060815260200160008152602001600073ffffffffffffffffffffffffffffffffffffffff168152602001600081525090565b828054600181600116156101000203166002900490600052602060002090601f016020900481019282601f10611bca57805160ff1916838001178555611bf8565b82800160010185558215611bf8579182015b82811115611bf7578251825591602001919060010190611bdc565b5b509050611c059190611c50565b5090565b6040518060a001604052806060815260200160008152602001600073ffffffffffffffffffffffffffffffffffffffff168152602001600015158152602001600081525090565b611c7291905b80821115611c6e576000816000905550600101611c56565b5090565b9056fe41206d696e756d756d20636f6e747269627574696f6e2069732072657175697265642e4f6e6c79207468652043686172697461626c654361757365206d616e616765722063616e2063616c6c20746869732066756e6374696f6e2e5468697320726571756573742068617320616c7265616479206265656e2066696e616c697a6564596f75206861766520616c726561647920766f74656420746f20617070726f7665207468697320726571756573744f6e6c7920636f6e7472696275746f72732063616e20617070726f76652061207370656369666963207061796d656e742072657175657374546869732072657175657374206e65656473206d6f726520617070726f76616c73206265666f72652069742063616e2062652066696e616c697a6564a265627a7a72315820b98f678994d053c22647776050764025cf2b1ab2399f44d426903272031057bc64736f6c63430005100032a265627a7a7231582067404cca2e0b799cf927d1edcbdd4592267960a22c0bdea25322b7503b7a5e1d64736f6c63430005100032",
  "source": "pragma solidity >=0.5.0 <0.7.0;\r\n\r\ncontract CharitableCauseFactory {\r\n    CharitableCause[] public deployedCharitableCauses;\r\n\r\n    function createCharitableCause(uint256 minimum, string memory title, string memory details, string memory location, string memory causeType) public {\r\n        CharitableCause newCharitableCause = new CharitableCause(\r\n            minimum,\r\n            msg.sender,\r\n            title,\r\n            details,\r\n            location,\r\n            causeType\r\n        );\r\n        deployedCharitableCauses.push(newCharitableCause);\r\n    }\r\n\r\n    function getDeployedCharitableCauses()\r\n        public\r\n        view\r\n        returns (CharitableCause[] memory)\r\n    {\r\n        return deployedCharitableCauses;\r\n    }\r\n}\r\n\r\ncontract CharitableCause {\r\n\r\n    string public title;\r\n    string public details;\r\n    string public location;\r\n    string public causeType;\r\n    address public manager;\r\n    uint256 public minimumContribution;\r\n    mapping(address => bool) public approvers;\r\n    uint256 public approversCount;\r\n    Request[] public requests;\r\n    Withdrawal[] public withdrawals;\r\n\r\n\r\n    struct Request {\r\n        string description;\r\n        uint256 value;\r\n        address payable recipient;\r\n        bool complete;\r\n        uint256 approvalCount;\r\n        mapping(address => bool) approvals;\r\n    }\r\n\r\n    struct Withdrawal {\r\n        string description;\r\n        uint256 amount;\r\n        address payable recieverAcc;\r\n        uint256 timestamp;\r\n    }\r\n\r\n    constructor(uint256 minimum, address creator, string memory ttl, string memory des, string memory loctn, string memory cause) public {\r\n        manager = creator;\r\n        minimumContribution = minimum;\r\n        title = ttl;\r\n        location = loctn;\r\n        causeType = cause;\r\n        details = des;\r\n    }\r\n\r\n    function contribute() public payable {\r\n        require(\r\n            msg.value >= minimumContribution,\r\n            \"A minumum contribution is required.\"\r\n        );\r\n        approvers[msg.sender] = true;\r\n        approversCount++;\r\n    }\r\n\r\n    function createRequest(string memory description, uint256 value, address payable recipient) public onlyManager {\r\n        Request memory newRequest = Request({\r\n            description: description,\r\n            value: value,\r\n            recipient: recipient,\r\n            complete: false,\r\n            approvalCount: 0\r\n        });\r\n        requests.push(newRequest);\r\n    }\r\n\r\n    function approveRequest(uint256 index) public {\r\n        Request storage request = requests[index];\r\n        require(\r\n            approvers[msg.sender],\r\n            \"Only contributors can approve a specific payment request\"\r\n        );\r\n        require(\r\n            !request.approvals[msg.sender],\r\n            \"You have already voted to approve this request\"\r\n        );\r\n\r\n        request.approvals[msg.sender] = true;\r\n        request.approvalCount++;\r\n    }\r\n\r\n    function finalizeRequest(uint256 index) public onlyManager {\r\n        Request storage request = requests[index];\r\n        require(\r\n            request.approvalCount > (approversCount / 2),\r\n            \"This request needs more approvals before it can be finalized\"\r\n        );\r\n        require(!(request.complete), \"This request has already been finalized\");\r\n\r\n        request.recipient.transfer(request.value);\r\n        request.complete = true;\r\n    }\r\n\r\n    function getSummary()\r\n        public\r\n        view\r\n        returns (\r\n            uint256,\r\n            uint256,\r\n            uint256,\r\n            uint256,\r\n            address,\r\n            string memory,\r\n            string memory,\r\n            string memory,\r\n            string memory\r\n        )\r\n    {\r\n        return (\r\n            minimumContribution,\r\n            address(this).balance,\r\n            requests.length,\r\n            approversCount,\r\n            manager,\r\n            title,\r\n            details,\r\n            location,\r\n            causeType\r\n        );\r\n    }\r\n\r\n    function getRequestsCount() public view returns (uint256) {\r\n        return requests.length;\r\n    }\r\n\r\n    function makeWithdrawal(uint256 amt, address payable recieverAcc, string memory description) public onlyManager {\r\n        recieverAcc.transfer(amt);\r\n        Withdrawal memory withdrawal =  Withdrawal({\r\n            description: description,\r\n            amount: amt,\r\n            timestamp: now,\r\n            recieverAcc: recieverAcc\r\n        });\r\n        withdrawals.push(withdrawal);\r\n    }\r\n\r\n     function getWithdrawalCount()\r\n        public\r\n        view\r\n        returns (uint256)\r\n    {\r\n        return withdrawals.length;\r\n    }\r\n\r\n    modifier onlyManager() {\r\n        require(\r\n            msg.sender == manager,\r\n            \"Only the CharitableCause manager can call this function.\"\r\n        );\r\n        _;\r\n    }\r\n}\r\n",
  "sourcePath": "C:/Users/noelm/Documents/ETH_Global_Hackathon/Magnanimity/contracts/CharitableCause.sol",
  "compiler": {
    "name": "solc",
    "version": "0.5.16+commit.9c3226ce.Emscripten.clang"
  },
  "schemaVersion": "3.4.1",
  "updatedAt": "2021-07-05T14:25:32.435Z",
  "devdoc": {
    "methods": {}
  },
  "userdoc": {
    "methods": {}
  }
}